00COTAHIST.2025BOVESPA 20250923                                                                                                                                                                                                                      
012025092202BALM4       010BAUMER      PN           R$  000000000170000000000017150000000001700000000000170900000000017150000000001540000000000172000005000000000000000500000000000000854500000000000000009999123100000010000000000000BRBALMACNPR2058
012025092202BAZA3       010AMAZONIA    ON           R$  000000000770600000000080990000000007663000000000784100000000078020000000007780000000000781000069000000000000009700000000000076064600000000000000009999123100000010000000000000BRBAZAACNOR0180
012025092202BBAS3       010BRASIL      ON      NM   R$  000000000216000000000021860000000002135000000000215700000000021510000000002150000000000215534555000000000029380400000000063384649700000000000000009999123100000010000000000000BRBBASACNOR3332
012025092202QUAL3       010QUALICORP   ON      NM   R$  000000000023100000000002390000000000215000000000022700000000002330000000000233000000000023403256000000000005370900000000001221849600000000000000009999123100000010000000000000BRQUALACNOR6122
012025092202RADL3       010RAIADROGASILON      NM   R$  000000000180000000000018030000000001744000000000176000000000017610000000001760000000000176317339000000000008016400000000014112675900000000000000009999123100000010000000000000BRRADLACNOR0162
012025092202SLCE3       010SLC AGRICOLAON      NM   R$  000000000168000000000016810000000001647000000000165400000000016470000000001646000000000165004873000000000001769400000000002927062900000000000000009999123100000010000000000000BRSLCEACNOR2126
012025092202CAMB3       010CAMBUCI     ON           R$  000000000098700000000010200000000000979000000000099500000000010080000000000995000000000101000149000000000000031800000000000031667000000000000000009999123100000010000000000000BRCAMBACNOR4135
012025092202CAML3       010CAMIL       ON      NM   R$  000000000052700000000005270000000000511000000000051500000000005160000000000514000000000051601477000000000000525500000000000270679200000000000000009999123100000010000000000000BRCAMLACNOR3133
012025092202CASH3       010MELIUZ      ON      NM   R$  000000000041500000000004160000000000397000000000040600000000004100000000000409000000000041005269000000000003549200000000001441071200000000000000009999123100000010000000000000BRCASHACNOR8107
012025092202CSED3       010CRUZEIRO EDUON      NM   R$  000000000050500000000005090000000000493000000000049700000000004950000000000495000000000049600979000000000000335000000000000166703600000000000000009999123100000010000000000000BRCSEDACNOR9106
012025092202CSMG3       010COPASA      ON      NM   R$  000000000332500000000033870000000003314000000000335500000000033610000000003355000000000336205590000000000001249900000000004193934200000000000000009999123100000010000000000000BRCSMGACNOR5180
012025092202EMAE4       010EMAE        PN           R$  000000000277400000000028190000000002764000000000278400000000028000000000002764000000000282000013000000000000003100000000000008631300000000000000009999123100000010000000000000BREMAEACNPR1128
012025092202EMBR3       010EMBRAER     ON      NM   R$  000000000776500000000080990000000007735000000000800200000000080300000000008028000000000804028753000000000009188300000000073532152300000000000000009999123100000010000000000000BREMBRACNOR4194
012025092202GMAT3       010GRUPO MATEUSON      NM   R$  000000000071000000000007120000000000694000000000070300000000007040000000000704000000000070907079000000000004716300000000003318983600000000000000009999123100000010000000000000BRGMATACNOR7106
012025092202GOAU3       010GERDAU MET  ON      N1   R$  000000000094800000000009600000000000943000000000095000000000009590000000000951000000000095900144000000000000037100000000000035250200000000000000009999123100000010000000000000BRGOAUACNOR1272
012025092202GOAU4       010GERDAU MET  PN      N1   R$  000000000094600000000009580000000000941000000000094800000000009550000000000954000000000095605944000000000005507200000000005224444200000000000000009999123100000010000000000000BRGOAUACNPR8273
012025092202ITSA3       010ITAUSA      ON      N1   R$  000000000114000000000011430000000001122000000000112800000000011340000000001124000000000113400487000000000000083200000000000093917900000000000000009999123100000010000000000000BRITSAACNOR0452
012025092202ITSA4       010ITAUSA      PN      N1   R$  000000000113500000000011370000000001120000000000112700000000011300000000001127000000000113011258000000000018734300000000021122315000000000000000009999123100000010000000000000BRITSAACNPR7452
012025092202AZZA3       010AZZAS 2154  ON      NM   R$  000000000321400000000032140000000003083000000000313700000000031500000000003144000000000315009412000000000002047800000000006425443800000000000000009999123100000010000000000000BRAZZAACNOR9101
012025092202SCAR3       010SAO CARLOS  ON      NM   R$  000000000206400000000020740000000002064000000000206500000000020740000000002046000000000207500010000000000000005400000000000011154500000000000000009999123100000010000000000000BRSCARACNOR7132
012025092202SEER3       010SER EDUCA   ON      NM   R$  000000000108400000000011210000000001070000000000110400000000011170000000001115000000000111703579000000000000768600000000000848595900000000000000009999123100000010000000000000BRSEERACNOR5120
012025092202SEQL3       010SEQUOIA LOG ON  ES  NM   R$  000000000013900000000001470000000000135000000000013900000000001370000000000136000000000013700690000000000001002400000000000139880900000000000000009999123100000010000000000000BRSEQLACNOR2107
012025092202SHOW3       010TIME FOR FUNON      NM   R$  000000000060000000000006160000000000579000000000058900000000005810000000000581000000000058900429000000000000134800000000000079508000000000000000009999123100000010000000000000BRSHOWACNOR7106
012025092202SHUL4       010SCHULZ      PN           R$  000000000048800000000004920000000000477000000000048200000000004840000000000483000000000048700684000000000000393600000000000189961600000000000000009999123100000010000000000000BRSHULACNPR4160
012025092202SIMH3       010SIMPAR      ON      NM   R$  000000000059100000000005910000000000536000000000054500000000005370000000000536000000000053711751000000000011603500000000006325026600000000000000009999123100000010000000000000BRSIMHACNOR0109
012025092202EALT3       010ACO ALTONA  ON           R$  000000000129900000000012990000000001289000000000129400000000012890000000001263000000000129000004000000000000000600000000000000776400000000000000009999123100000010000000000000BREALTACNOR4139
012025092202EALT4       010ACO ALTONA  PN           R$  000000000118000000000011950000000001159000000000117500000000011770000000001176000000000118500082000000000000020400000000000023973400000000000000009999123100000010000000000000BREALTACNPR1139
012025092202ECOR3       010ECORODOVIAS ON      NM   R$  000000000079900000000007990000000000762000000000077800000000007920000000000792000000000079310352000000000007504200000000005842501100000000000000009999123100000010000000000000BRECORACNOR8122
012025092202EGIE3       010ENGIE BRASILON      NM   R$  000000000414700000000041870000000004129000000000415100000000041290000000004129000000000413403944000000000000700400000000002907994000000000000000009999123100000010000000000000BREGIEACNOR9130
012025092202GEPA3       010GER PARANAP ON           R$  000000000340000000000034000000000003400000000000340000000000034000000000003300000000000359900001000000000000000100000000000000340000000000000000009999123100000010000000000000BRGEPAACNOR2156
012025092202GEPA4       010GER PARANAP PN           R$  000000000359800000000035980000000003482000000000352000000000035000000000003482000000000360000006000000000000000600000000000002112400000000000000009999123100000010000000000000BRGEPAACNPR9163
012025092202GFSA3       010GAFISA      ON      NM   R$  000000000117300000000011790000000001158000000000116400000000011600000000001159000000000116000588000000000000199500000000000232278600000000000000009999123100000010000000000000BRGFSAACNOR3126
012025092202GGBR3       010GERDAU      ON      N1   R$  000000000151500000000015200000000001490000000000150300000000015040000000001503000000000151000140000000000000031500000000000047372400000000000000009999123100000010000000000000BRGGBRACNOR1197
012025092202GGBR4       010GERDAU      PN      N1   R$  000000000167000000000016740000000001643000000000166200000000016740000000001671000000000167507530000000000006292200000000010459108000000000000000009999123100000010000000000000BRGGBRACNPR8197
012025092202GSHP3       010GENERALSHOPPON           R$  000000000029000000000002900000000000290000000000029000000000002900000000000287000000000029500001000000000000000100000000000000029000000000000000009999123100000010000000000000BRGSHPACNOR7102
012025092202GUAR3       010GUARARAPES  ON      NM   R$  000000000096400000000009860000000000940000000000096600000000009850000000000983000000000098503648000000000001008100000000000974630600000000000000009999123100000010000000000000BRGUARACNOR4174
012025092202UNIP3       010UNIPAR      ON           R$  000000000630000000000063600000000006200000000000631000000000063300000000006275000000000639100074000000000000008900000000000056159000000000000000009999123100000010000000000000BRUNIPACNOR7209
012025092202UNIP5       010UNIPAR      PNA          R$  000000000735500000000073550000000007355000000000735500000000073550000000006892000000000744000001000000000000000100000000000000735500000000000000009999123100000010000000000000BRUNIPACNPA0211
012025092202UNIP6       010UNIPAR      PNB          R$  000000000735100000000074300000000007252000000000735100000000073600000000007360000000000736801128000000000000162000000000001190942700000000000000009999123100000010000000000000BRUNIPACNPB8209
012025092202USIM3       010USIMINAS    ON      N1   R$  000000000045000000000004560000000000439000000000044800000000004500000000000450000000000045101158000000000000517400000000000232031600000000000000009999123100000010000000000000BRUSIMACNOR3167
012025092202USIM5       010USIMINAS    PNA     N1   R$  000000000044800000000004480000000000438000000000044100000000004440000000000443000000000044405306000000000010226800000000004514402200000000000000009999123100000010000000000000BRUSIMACNPA6171
012025092202VIVR3       010VIVER       ON      NM   R$  000000000009600000000000960000000000091000000000009400000000000930000000000093000000000009500042000000000000037800000000000003557400000000000000009999123100000010000000000000BRVIVRACNOR4124
012025092202VIVT3       010TELEF BRASILON           R$  000000000333800000000033740000000003334000000000335000000000033500000000003345000000000335012686000000000003904200000000013079965400000000000000009999123100000010000000000000BRVIVTACNOR0195
012025092202VLID3       010VALID       ON      NM   R$  000000000214700000000021480000000002115000000000213200000000021250000000002124000000000214401088000000000000173700000000000370358200000000000000009999123100000010000000000000BRVLIDACNOR5147
012025092202WEGE3       010WEG         ON      NM   R$  000000000363200000000037240000000003607000000000366700000000037110000000003707000000000371321609000000000017499300000000064179855200000000000000009999123100000010000000000000BRWEGEACNOR0231
012025092202GOLL54      010GOL         PN *P   N2   R$  000000000060600000000006140000000000586000000000059400000000005870000000000587000000000058901459000000000275820000000000000163953628000000000000009999123100010000000000000000BRGOLLA01PR5100
012025092202GRND3       010GRENDENE    ON      NM   R$  000000000051700000000005270000000000512000000000052100000000005240000000000522000000000052403459000000000001947000000000001015846600000000000000009999123100000010000000000000BRGRNDACNOR3179
012025092202PNVL3       010DIMED       ON      NM   R$  000000000098500000000009850000000000962000000000096900000000009750000000000964000000000097501595000000000000399300000000000387230300000000000000009999123100000010000000000000BRPNVLACNOR9211
012025092202POMO3       010MARCOPOLO   ON      N2   R$  000000000081200000000008150000000000789000000000079600000000008000000000000800000000000080100933000000000000368400000000000293504500000000000000009999123100000010000000000000BRPOMOACNOR0103
012025092202POMO4       010MARCOPOLO   PN      N2   R$  000000000095200000000009520000000000929000000000093500000000009390000000000937000000000094009870000000000007110800000000006652578900000000000000009999123100000010000000000000BRPOMOACNPR7103
012025092202REAG3       010REAGINVEST  ON      NM   R$  000000000028100000000002810000000000276000000000027700000000002760000000000276000000000027700032000000000000008100000000000002246200000000000000009999123100000010000000000000BRREAGACNOR8103
012025092202RECV3       010PETRORECSA  ON      NM   R$  000000000129500000000013020000000001282000000000129200000000012960000000001295000000000130104162000000000001770500000000002288804100000000000000009999123100000010000000000000BRRECVACNOR3109
012025092202REDE3       010REDE ENERGIAON           R$  000000000063000000000006410000000000627000000000063000000000006270000000000628000000000063500015000000000000003100000000000001955900000000000000009999123100000010000000000000BRREDEACNOR7132
012025092202RENT3       010LOCALIZA    ON      NM   R$  000000000391000000000039200000000003815000000000387500000000039130000000003911000000000391317625000000000006371300000000024693484300000000000000009999123100000010000000000000BRRENTACNOR4202
012025092202MGLU3       010MAGAZ LUIZA ON      NM   R$  000000000109200000000011140000000001075000000000109000000000010840000000001083000000000108417883000000000014825500000000016160387600000000000000009999123100000010000000000000BRMGLUACNOR2128
012025092202RNEW3       010RENOVA      ON      N2   R$  000000000011600000000001160000000000108000000000011000000000001090000000000108000000000010900086000000000000067900000000000007483300000000000000009999123100000010000000000000BRRNEWACNOR8113
012025092202RNEW4       010RENOVA      PN      N2   R$  000000000011400000000001150000000000108000000000010900000000001090000000000107000000000010900107000000000000111600000000000012260700000000000000009999123100000010000000000000BRRNEWACNPR5113
012025092202ROMI3       010ROMI        ON      NM   R$  000000000084700000000008470000000000816000000000082100000000008160000000000816000000000082000868000000000000692100000000000568299700000000000000009999123100000010000000000000BRROMIACNOR8199
012025092202PATI3       010PANATLANTICAON           R$  000000000460000000000046000000000004600000000000460000000000046000000000004300000000000565000001000000000000000100000000000000460000000000000000009999123100000010000000000000BRPATIACNOR6068
012025092202PCAR3       010P.ACUCAR-CBDON      NM   R$  000000000041200000000004250000000000401000000000041300000000004130000000000413000000000041506755000000000009651500000000003995647300000000000000009999123100000010000000000000BRPCARACNOR3169
012025092202PFRM3       010PROFARMA    ON      NM   R$  000000000074100000000007500000000000726000000000073600000000007380000000000738000000000073900429000000000000093500000000000068837600000000000000009999123100000010000000000000BRPFRMACNOR1119
012025092202SYNE3       010SYN PROP TECON  ER  NM   R$  000000000050600000000005170000000000491000000000050300000000005040000000000503000000000050504178000000000001704500000000000857444200000000000000009999123100000010000000000000BRSYNEACNOR2106
012025092202PGMN3       010PAGUE MENOS ON      NM   R$  000000000036600000000003660000000000355000000000035900000000003570000000000357000000000035802387000000000001384900000000000498050400000000000000009999123100000010000000000000BRPGMNACNOR8104
012025092202PINE3       010PINE        ON      N2   R$  000000000084400000000008500000000000838000000000084300000000008500000000000801000000000085000011000000000000001800000000000001518600000000000000009999123100000010000000000000BRPINEACNOR1156
012025092202PINE4       010PINE        PN      N2   R$  000000000085000000000008920000000000833000000000086600000000008920000000000880000000000089201312000000000000423100000000000366764500000000000000009999123100000010000000000000BRPINEACNPR8156
012025092202PLPL3       010PLANOEPLANO ON      NM   R$  000000000178400000000017870000000001695000000000172400000000017210000000001720000000000172903063000000000000684200000000001180097400000000000000009999123100000010000000000000BRPLPLACNOR5105
012025092202TAEE11      010TAESA       UNT     N2   R$  000000000356000000000035800000000003545000000000356300000000035700000000003570000000000357106601000000000001607100000000005727163300000000000000009999123100000010000000000000BRTAEECDAM10152
012025092202TAEE3       010TAESA       ON      N2   R$  000000000118400000000011840000000001150000000000117800000000011820000000001180000000000118200319000000000000049700000000000058590200000000000000009999123100000010000000000000BRTAEEACNOR9152
012025092202TAEE4       010TAESA       PN      N2   R$  000000000119100000000011940000000001180000000000118600000000011880000000001186000000000118800521000000000000130200000000000154543500000000000000009999123100000010000000000000BRTAEEACNPR6152
012025092202TASA3       010TAURUS ARMASON      N2   R$  000000000054100000000005540000000000534000000000054300000000005540000000000546000000000055500085000000000000011600000000000006307400000000000000009999123100000010000000000000BRTASAACNOR7106
012025092202TASA4       010TAURUS ARMASPN      N2   R$  000000000048800000000004910000000000480000000000048600000000004850000000000485000000000048601085000000000000303400000000000147530800000000000000009999123100000010000000000000BRTASAACNPR4106
012025092202TCSA3       010TECNISA     ON      NM   R$  000000000016700000000001680000000000163000000000016500000000001660000000000164000000000016600081000000000000025900000000000004279200000000000000009999123100000010000000000000BRTCSAACNOR3112
012025092202NUTR3       010NUTRIPLANT  ON      MA   R$  000000000028600000000002900000000000285000000000028600000000002850000000000285000000000028900013000000000000001700000000000000486800000000000000009999123100000010000000000000BRNUTRACNOR0104
012025092202ODPV3       010ODONTOPREV  ON  EJ  NM   R$  000000000132300000000013230000000001301000000000131000000000013060000000001306000000000131804112000000000001067000000000001398815800000000000000009999123100000010000000000000BRODPVACNOR4212
012025092202OFSA3       010OUROFINO S/AON      NM   R$  000000000223000000000022300000000002211000000000221200000000022120000000002211000000000229000003000000000000003200000000000007079700000000000000009999123100000010000000000000BROFSAACNOR7121
012025092202TECN3       010TECHNOS     ON      NM   R$  000000000067500000000006790000000000665000000000067100000000006650000000000665000000000066600091000000000000047100000000000031641600000000000000009999123100000010000000000000BRTECNACNOR6110
012025092202TELB3       010TELEBRAS    ON           R$  000000000127300000000013300000000001125000000000115000000000011250000000001125000000000114900131000000000000036500000000000041990100000000000000009999123100000010000000000000BRTELBACNOR2142
012025092202TELB4       010TELEBRAS    PN           R$  000000000096000000000009600000000000901000000000093800000000009300000000000903000000000093500041000000000000005700000000000005351500000000000000009999123100000010000000000000BRTELBACNPR9142
012025092202ISAE3       010ISA ENERGIA ON      N1   R$  000000000306900000000030980000000003052000000000309000000000030950000000003053000000000309500011000000000000003100000000000009581500000000000000009999123100000010000000000000BRISAEACNOR2103
012025092202ISAE4       010ISA ENERGIA PN      N1   R$  000000000238000000000023850000000002353000000000236100000000023530000000002352000000000235304265000000000001664200000000003929893300000000000000009999123100000010000000000000BRISAEACNPR9103
012025092202ONCO3       010ONCOCLINICASON      NM   R$  000000000029400000000002940000000000282000000000028800000000002880000000000288000000000028901590000000000001279400000000000369396000000000000000009999123100000010000000000000BRONCOACNOR6101
012025092202OPCT3       010OCEANPACT   ON      NM   R$  000000000079900000000007990000000000778000000000078900000000007970000000000793000000000079801179000000000000288800000000000227920100000000000000009999123100000010000000000000BROPCTACNOR0100
012025092202ORVR3       010ORIZON      ON      NM   R$  000000000575300000000057530000000005604000000000564700000000056520000000005652000000000567301928000000000000352800000000001992477400000000000000009999123100000010000000000000BRORVRACNOR0101
012025092202PETZ3       010PETZ        ON      NM   R$  000000000039500000000003950000000000382000000000038700000000003830000000000383000000000038403392000000000006169400000000002390603900000000000000009999123100000010000000000000BRPETZACNOR2112
012025092202RANI3       010IRANI       ON      NM   R$  000000000083600000000008380000000000813000000000082100000000008190000000000818000000000082202829000000000000894400000000000735012000000000000000009999123100000010000000000000BRRANIACNOR5078
012025092202RAPT3       010RANDON PART ON      N1   R$  000000000064300000000006430000000000630000000000063400000000006350000000000635000000000064100090000000000000042200000000000026784600000000000000009999123100000010000000000000BRRAPTACNOR7166
012025092202RAPT4       010RANDON PART PN      N1   R$  000000000066800000000006680000000000641000000000064800000000006450000000000644000000000064804137000000000003475400000000002252737500000000000000009999123100000010000000000000BRRAPTACNPR4166
012025092202LUPA3       010LUPATECH    ON      NM   R$  000000000011300000000001140000000000112000000000011200000000001120000000000112000000000011400034000000000000035400000000000003985600000000000000009999123100000010000000000000BRLUPAACNOR8112
012025092202LUXM4       010TREVISA     PN           R$  000000000037000000000003740000000000340000000000036100000000003650000000000354000000000036600075000000000000020700000000000007481500000000000000009999123100000010000000000000BRLUXMACNPR4053
012025092202LVTC3       010WDC NETWORKSON      NM   R$  000000000037500000000003750000000000363000000000036800000000003680000000000366000000000037000094000000000000040200000000000014797500000000000000009999123100000010000000000000BRLVTCACNOR4103
012025092202LWSA3       010LWSA        ON      NM   R$  000000000046000000000004600000000000442000000000044800000000004420000000000442000000000044604229000000000003806700000000001708370900000000000000009999123100000010000000000000BRLWSAACNOR8105
012025092202RCSL3       010RECRUSUL    ON           R$  000000000017700000000001810000000000173000000000017600000000001740000000000174000000000017600204000000000000091900000000000016203000000000000000009999123100000010000000000000BRRCSLACNOR4134
012025092202RCSL4       010RECRUSUL    PN           R$  000000000010600000000001080000000000106000000000010600000000001060000000000106000000000010701949000000000001321500000000000141112900000000000000009999123100000010000000000000BRRCSLACNPR1134
012025092202RDNI3       010RNI         ON      NM   R$  000000000022600000000002390000000000225000000000022900000000002290000000000225000000000022900034000000000000007100000000000001630200000000000000009999123100000010000000000000BRRDNIACNOR9116
012025092202RDOR3       010REDE D OR   ON      NM   R$  000000000418100000000041960000000004142000000000416600000000041710000000004171000000000417412107000000000002762900000000011511234400000000000000009999123100000010000000000000BRRDORACNOR8117
012025092202ZAMP3       010ZAMP S.A.   ON           R$  000000000035000000000003510000000000350000000000035000000000003510000000000350000000000035100358000000000000213000000000000074615300000000000000009999123100000010000000000000BRZAMPACNOR5101
012025092202RAIZ4       010RAIZEN      PN      N2   R$  000000000012700000000001270000000000116000000000011800000000001190000000000118000000000011918855000000000109994000000000013000955400000000000000009999123100000010000000000000BRRAIZACNPR6112
012025092202NEOE3       010NEOENERGIA  ON      NM   R$  000000000285900000000028850000000002836000000000287200000000028800000000002870000000000288406153000000000001269600000000003646965900000000000000009999123100000010000000000000BRNEOEACNOR3126
012025092202NGRD3       010NEOGRID     ON      NM   R$  000000000261500000000026160000000002570000000000258700000000025710000000002570000000000260000058000000000000008800000000000022772700000000000000009999123100000010000000000000BRNGRDACNOR3106
012025092202SMFT3       010SMART FIT   ON  EJ  NM   R$  000000000260000000000026220000000002540000000000258500000000026120000000002612000000000261409397000000000002589200000000006694733800000000000000009999123100000010000000000000BRSMFTACNOR1116
012025092202SMTO3       010SAO MARTINHOON      NM   R$  000000000174900000000017520000000001693000000000171900000000017390000000001735000000000173905942000000000002204200000000003790720300000000000000009999123100000010000000000000BRSMTOACNOR3129
012025092202SOJA3       010BOA SAFRA   ON      NM   R$  000000000111000000000011100000000001070000000000107700000000010730000000001072000000000107302255000000000000716200000000000771682500000000000000009999123100000010000000000000BRSOJAACNOR9107
012025092202BBSE3       010BBSEGURIDADEON      NM   R$  000000000328900000000033350000000003271000000000332200000000033240000000003324000000000333111581000000000011233700000000037320120600000000000000009999123100000010000000000000BRBBSEACNOR5127
012025092202BRSR3       010BANRISUL    ON  EJ  N1   R$  000000000130400000000013100000000001291000000000130400000000013050000000001291000000000130500062000000000000017800000000000023216600000000000000009999123100000010000000000000BRBRSRACNOR3195
012025092202BRSR5       010BANRISUL    PNA EJ  N1   R$  000000000157500000000015750000000001575000000000157500000000015750000000001350000000000178600001000000000000000100000000000000157500000000000000009999123100000010000000000000BRBRSRACNPA6199
012025092202BRSR6       010BANRISUL    PNB EJ  N1   R$  000000000118600000000011900000000001165000000000116900000000011700000000001167000000000117004483000000000001492000000000001745538300000000000000009999123100000010000000000000BRBRSRACNPB4198
012025092202BRST3       010BRISANET    ON      NM   R$  000000000028800000000002960000000000286000000000028700000000002860000000000286000000000029000788000000000000306500000000000088241400000000000000009999123100000010000000000000BRBRSTACNOR9101
012025092202BSLI3       010BRB BANCO   ON           R$  000000000092000000000009200000000000888000000000090000000000009200000000000892000000000091900007000000000000001400000000000001260500000000000000009999123100000010000000000000BRBSLIACNOR5198
012025092202BSLI4       010BRB BANCO   PN           R$  000000000094900000000009530000000000949000000000095100000000009530000000000930000000000098900002000000000000000200000000000000190200000000000000009999123100000010000000000000BRBSLIACNPR2198
012025092202JSLG3       010JSL         ON      NM   R$  000000000064000000000006400000000000616000000000062100000000006220000000000622000000000062402140000000000000625600000000000388821500000000000000009999123100000010000000000000BRJSLGACNOR2122
012025092202KEPL3       010KEPLER WEBERON      NM   R$  000000000078400000000007870000000000767000000000077400000000007780000000000778000000000078102875000000000000868900000000000673390100000000000000009999123100000010000000000000BRKEPLACNOR1067
012025092202KLBN11      010KLABIN S/A  UNT     N2   R$  000000000183100000000018330000000001802000000000181600000000018200000000001818000000000182910452000000000004542300000000008250393900000000000000009999123100000010000000000000BRKLBNCDAM18148
012025092202KLBN3       010KLABIN S/A  ON      N2   R$  000000000037200000000003720000000000366000000000036800000000003700000000000370000000000037101350000000000000797000000000000293579100000000000000009999123100000010000000000000BRKLBNACNOR2176
012025092202KLBN4       010KLABIN S/A  PN      N2   R$  000000000036700000000003670000000000360000000000036200000000003630000000000363000000000036403310000000000003526700000000001279308700000000000000009999123100000010000000000000BRKLBNACNPR9176
012025092202MRVE3       010MRV         ON      NM   R$  000000000078300000000007920000000000768000000000078000000000007810000000000780000000000078108492000000000009361600000000007303344400000000000000009999123100000010000000000000BRMRVEACNOR2128
012025092202PTBL3       010PORTOBELLO  ON      NM   R$  000000000041300000000004200000000000398000000000040200000000004070000000000401000000000040700284000000000000128200000000000051635000000000000000009999123100000010000000000000BRPTBLACNOR8132
012025092202PTNT3       010PETTENATI   ON           R$  000000000082300000000008230000000000808000000000081900000000008200000000000800000000000082000004000000000000000900000000000000737100000000000000009999123100000010000000000000BRPTNTACNOR6043
012025092202PTNT4       010PETTENATI   PN           R$  000000000049000000000004900000000000450000000000045300000000004500000000000450000000000045500058000000000000047600000000000021606600000000000000009999123100000010000000000000BRPTNTACNPR3048
012025092202VSTE3       010VESTE       ON      NM   R$  000000000054200000000005420000000000534000000000053800000000005340000000000536000000000054000004000000000000000500000000000000269100000000000000009999123100000010000000000000BRVSTEACNOR5104
012025092202VTRU3       010VITRUEDUCA  ON      NM   R$  000000000117100000000011980000000001140000000000116600000000011820000000001175000000000118200616000000000000129700000000000151336800000000000000009999123100000010000000000000BRVTRUACNOR3101
012025092202VULC3       010VULCABRAS   ON  ED  NM   R$  000000000200000000000020000000000001933000000000195200000000019570000000001949000000000195803768000000000001251100000000002443074300000000000000009999123100000010000000000000BRVULCACNOR2175
012025092202VVEO3       010VIVEO       ON      NM   R$  000000000011200000000001130000000000109000000000011000000000001100000000000109000000000011001599000000000000879800000000000097218600000000000000009999123100000010000000000000BRVVEOACNOR0104
012025092202HAGA3       010HAGA S/A    ON           R$  000000000018400000000001840000000000183000000000018300000000001840000000000182000000000018400005000000000000000800000000000000146700000000000000009999123100000010000000000000BRHAGAACNOR7103
012025092202HAGA4       010HAGA S/A    PN           R$  000000000011500000000001170000000000115000000000011600000000001170000000000115000000000011700002000000000000000200000000000000023200000000000000009999123100000010000000000000BRHAGAACNPR4103
012025092202HAPV3       010HAPVIDA     ON      NM   R$  000000000381200000000038120000000003706000000000374200000000037560000000003755000000000375610057000000000003559900000000013324000400000000000000009999123100000010000000000000BRHAPVACNOR4118
012025092202ITUB3       010ITAUUNIBANCOON      N1   R$  000000000345500000000034550000000003392000000000341100000000034130000000003412000000000341801688000000000000521800000000001780028300000000000000009999123100000010000000000000BRITUBACNOR4358
012025092202ITUB4       010ITAUUNIBANCOPN      N1   R$  000000000387300000000038860000000003828000000000384900000000038440000000003843000000000384918581000000000017791300000000068486484000000000000000009999123100000010000000000000BRITUBACNPR1358
012025092202B3SA3       010B3          ON      NM   R$  000000000135900000000013670000000001336000000000134800000000013500000000001350000000000135733691000000000052882400000000071320509800000000000000009999123100000010000000000000BRB3SAACNOR6138
012025092202BRBI11      010BR PARTNERS UNT     N2   R$  000000000180000000000018000000000001768000000000177900000000017750000000001774000000000178701463000000000000193400000000000344158900000000000000009999123100000010000000000000BRBRBICDAM10115
012025092202BRFS3       010BRF SA      ON  EDJ NM   R$  000000000187500000000018770000000001795000000000181100000000017950000000001795000000000179925008000000000020861800000000037795289400000000000000009999123100000010000000000000BRBRFSACNOR8125
012025092202BIOM3       010BIOMM       ON      MA   R$  000000000087400000000008900000000000852000000000087100000000008750000000000853000000000087500039000000000000014500000000000012631600000000000000009999123100000010000000000000BRBIOMACNOR2113
012025092202BLAU3       010BLAU        ON      NM   R$  000000000142200000000014220000000001375000000000139100000000013850000000001383000000000139401190000000000000182700000000000254232500000000000000009999123100000010000000000000BRBLAUACNOR8116
012025092202CMIN3       010CSNMINERACAOON      N2   R$  000000000051900000000005270000000000515000000000052100000000005250000000000524000000000052503045000000000003581000000000001868974100000000000000009999123100000010000000000000BRCMINACNOR2114
012025092202COCE5       010COELCE      PNA          R$  000000000300300000000030030000000002915000000000294500000000029430000000002910000000000294400012000000000000001500000000000004417800000000000000009999123100000010000000000000BRCOCEACNPA3150
012025092202COGN3       010COGNA ON    ON  ATZ NM   R$  000000000031200000000003190000000000305000000000031200000000003180000000000317000000000031821104000000000030215600000000009429213400000000000000009999123100000010000000000000BRCOGNACNOR2108
012025092202CSUD3       010CSU DIGITAL ON      NM   R$  000000000185000000000018800000000001818000000000183600000000018800000000001831000000000188000092000000000000017800000000000032695500000000000000009999123100000010000000000000BRCSUDACNOR5115
012025092202CTKA4       010KARSTEN     PN           R$  000000000335200000000036500000000003350000000000339400000000036500000000003360000000000374700010000000000000003800000000000012898700000000000000009999123100000010000000000000BRCTKAACNPR7043
012025092202CURY3       010CURY S/A    ON      NM   R$  000000000331000000000033250000000003254000000000328900000000033080000000003307000000000330906244000000000001293900000000004256922700000000000000009999123100000010000000000000BRCURYACNOR3112
012025092202CVCB3       010CVC BRASIL  ON      NM   R$  000000000020300000000002050000000000200000000000020200000000002040000000000203000000000020504126000000000012843600000000002598520000000000000000009999123100000010000000000000BRCVCBACNOR1117
012025092202ENEV3       010ENEVA       ON      NM   R$  000000000164700000000016520000000001625000000000163500000000016380000000001634000000000163812617000000000006681000000000010928373500000000000000009999123100000010000000000000BRENEVACNOR8106
012025092202ENGI11      010ENERGISA    UNT     N2   R$  000000000498500000000050040000000004941000000000497500000000049850000000004979000000000498505547000000000001718100000000008548493800000000000000009999123100000010000000000000BRENGICDAM16138
012025092202ENGI3       010ENERGISA    ON      N2   R$  000000000136900000000014040000000001351000000000137100000000013600000000001360000000000138700021000000000000002600000000000003564700000000000000009999123100000010000000000000BRENGIACNOR0148
012025092202ENGI4       010ENERGISA    PN      N2   R$  000000000093000000000009490000000000893000000000090600000000008930000000000893000000000091000033000000000000008000000000000007250200000000000000009999123100000010000000000000BRENGIACNPR7144
012025092202ENJU3       010ENJOEI      ON      NM   R$  000000000009400000000000940000000000091000000000009300000000000930000000000093000000000009400455000000000001359500000000000126440700000000000000009999123100000010000000000000BRENJUACNOR9100
012025092202EPAR3       010EMBPAR S/A  ON           R$  000000000045800000000004580000000000448000000000045500000000004480000000000448000000000045600020000000000000002800000000000001275700000000000000009999123100000010000000000000BREPARACNOR9107
012025092202EQMA3B      010EQTLMARANHAOON      MB   R$  000000000328900000000032890000000003289000000000328900000000032890000000003001000000000328900001000000000000000100000000000000328900000000000000009999123100000010000000000000BREQMAACNOR8109
012025092202EQPA3       010EQTL PARA   ON           R$  000000000056500000000005650000000000560000000000056300000000005640000000000564000000000056500014000000000000015700000000000008854100000000000000009999123100000010000000000000BREQPAACNOR1112
012025092202EQTL3       010EQUATORIAL  ON      NM   R$  000000000367500000000036960000000003606000000000364500000000036580000000003656000000000365815082000000000005030200000000018338955400000000000000009999123100000010000000000000BREQTLACNOR0133
012025092202AALR3       010ALLIAR      ON      NM   R$  000000000063400000000006450000000000610000000000061800000000006100000000000610000000000061400118000000000000032700000000000020232800000000000000009999123100000010000000000000BRAALRACNOR6103
012025092202BEEF3       010MINERVA     ON      NM   R$  000000000064900000000006500000000000633000000000063700000000006410000000000640000000000064207630000000000006210500000000003960560100000000000000009999123100000010000000000000BRBEEFACNOR6119
012025092202ABCB4       010ABC BRASIL  PN      N2   R$  000000000232700000000023270000000002282000000000229300000000022960000000002295000000000229601726000000000000329800000000000756293800000000000000009999123100000010000000000000BRABCBACNPR4148
012025092202ABEV3       010AMBEV S/A   ON           R$  000000000124100000000012510000000001236000000000124000000000012360000000001235000000000123708542000000000014169100000000017570709300000000000000009999123100000010000000000000BRABEVACNOR1132
012025092202BEES3       010BANESTES    ON           R$  000000000082700000000008280000000000816000000000082100000000008160000000000816000000000082400086000000000000011100000000000009116600000000000000009999123100000010000000000000BRBEESACNOR9409
012025092202BEES4       010BANESTES    PN           R$  000000000082200000000008250000000000822000000000082300000000008250000000000823000000000082500011000000000000002200000000000001811400000000000000009999123100000010000000000000BRBEESACNPR6334
012025092202VALE3       010VALE        ON      NM   R$  000000000578200000000058440000000005781000000000581300000000058000000000005800000000000580126344000000000021947300000000127588292900000000000000009999123100000010000000000000BRVALEACNOR0216
012025092202JALL3       010JALLESMACHADON      NM   R$  000000000028100000000002810000000000275000000000027700000000002770000000000277000000000027901099000000000000883400000000000245286200000000000000009999123100000010000000000000BRJALLACNOR0106
012025092202JHSF3       010JHSF PART   ON      NM   R$  000000000062900000000006320000000000606000000000061800000000006210000000000621000000000062506442000000000006180400000000003822352200000000000000009999123100000010000000000000BRJHSFACNOR2151
012025092202VITT3       010VITTIA      ON      NM   R$  000000000051400000000005140000000000499000000000050500000000005070000000000507000000000050800616000000000000167300000000000084650200000000000000009999123100000010000000000000BRVITTACNOR4110
012025092202VIVA3       010VIVARA S.A. ON      NM   R$  000000000288000000000029060000000002837000000000287300000000028860000000002878000000000288808481000000000002246700000000006456203400000000000000009999123100000010000000000000BRVIVAACNOR0108
012025092202PDGR3       010PDG REALT   ON      NM   R$  000000000001400000000000150000000000013000000000001400000000000140000000000013000000000001400235000000000001073800000000000015157200000000000000009999123100000010000000000000BRPDGRACNOR8122
012025092202PDTC3       010PADTEC      ON      NM   R$  000000000010400000000001080000000000103000000000010500000000001070000000000105000000000010700077000000000000035100000000000003703400000000000000009999123100000010000000000000BRPDTCACNOR3101
012025092202MLAS3       010MULTILASER  ON      NM   R$  000000000010800000000001080000000000103000000000010500000000001050000000000105000000000010600940000000000001405800000000000148049800000000000000009999123100000010000000000000BRMLASACNOR9101
012025092202MNPR3       010MINUPAR     ON           R$  000000000408000000000041930000000004030000000000407500000000041800000000004070000000000418000021000000000000009300000000000037904200000000000000009999123100000010000000000000BRMNPRACNOR5122
012025092202MOAR3       010MONT ARANHA ON           R$  000000001050000000000105010000000010500000000001050000000000105010000000010500000000001150000002000000000000000200000000000002100100000000000000009999123100000010000000000000BRMOARACNOR5239
012025092202MOTV3       010MOTIVA SA   ON      NM   R$  000000000150700000000015090000000001490000000000149900000000015040000000001501000000000150410287000000000006120400000000009177998000000000000000009999123100000010000000000000BRMOTVACNOR7101
012025092202MOVI3       010MOVIDA      ON      NM   R$  000000000090000000000009050000000000844000000000086300000000008740000000000872000000000087408574000000000004211800000000003638918800000000000000009999123100000010000000000000BRMOVIACNOR0125
012025092202MRFG3       010MARFRIG     ON  ED  NM   R$  000000000221400000000022140000000002112000000000213100000000021120000000002112000000000211334758000000000018099800000000038583760900000000000000009999123100000010000000000000BRMRFGACNOR0118
012025092202PRNR3       010PRINER      ON      NM   R$  000000000174800000000017600000000001707000000000172800000000017370000000001731000000000173702060000000000000530100000000000916382400000000000000009999123100000010000000000000BRPRNRACNOR4111
012025092202PSSA3       010PORTO SEGUROON      NM   R$  000000000513700000000051380000000005072000000000511200000000051220000000005114000000000512206159000000000001490200000000007618084100000000000000009999123100000010000000000000BRPSSAACNOR7159
012025092202PETR3       010PETROBRAS   ON      N2   R$  000000000335000000000034100000000003335000000000338800000000034040000000003402000000000340508642000000000006264100000000021227709000000000000000009999123100000010000000000000BRPETRACNOR9211
012025092202PETR4       010PETROBRAS   PN      N2   R$  000000000310000000000031470000000003084000000000312300000000031370000000003136000000000313731402000000000022016100000000068777249400000000000000009999123100000010000000000000BRPETRACNPR6221
012025092202PORT3       010WILSON SONS ON      NM   R$  000000000182800000000018280000000001816000000000181800000000018200000000001817000000000182000623000000000000371900000000000676440100000000000000009999123100000010000000000000BRPORTACNOR8113
012025092202POSI3       010POSITIVO TECON      NM   R$  000000000045500000000004580000000000443000000000044900000000004480000000000448000000000045101543000000000000605400000000000271906100000000000000009999123100000010000000000000BRPOSIACNOR9117
012025092202PRIO3       010PETRORIO    ON      NM   R$  000000000378800000000038390000000003769000000000380400000000038180000000003818000000000382011671000000000004820400000000018337101700000000000000009999123100000010000000000000BRPRIOACNOR1110
012025092202RSUL4       010RIOSULENSE  PN           R$  000000000657800000000065780000000006529000000000654100000000065290000000005016000000000653000004000000000000000400000000000002616500000000000000009999123100000010000000000000BRRSULACNPR3115
012025092202RVEE3       010REVEE       ON      NM   R$  000000000131000000000013100000000001310000000000131000000000013100000000001310000000000142500009000000000000000900000000000001179000000000000000009999123100000010000000000000BRRVEEACNOR9102
012025092202CPFE3       010CPFL ENERGIAON      NM   R$  000000000385900000000038920000000003823000000000387100000000038870000000003885000000000388705699000000000001242800000000004810958000000000000000009999123100000010000000000000BRCPFEACNOR0138
012025092202CPLE3       010COPEL       ON      N2   R$  000000000121700000000012170000000001193000000000120000000000012010000000001200000000000120205932000000000002995700000000003595112400000000000000009999123100000010000000000000BRCPLEACNOR8152
012025092202CPLE5       010COPEL       PNA     N2   R$  000000000122000000000012200000000001220000000000122000000000012200000000001210000000000129000001000000000000000100000000000000122000000000000000009999123100000010000000000000BRCPLEACNPA1150
012025092202CPLE6       010COPEL       PNB     N2   R$  000000000128900000000012920000000001272000000000128100000000012820000000001280000000000128214684000000000012585600000000016122994900000000000000009999123100000010000000000000BRCPLEACNPB9149
012025092202SANB11      010SANTANDER BRUNT          R$  000000000288000000000028960000000002851000000000288000000000028820000000002882000000000288909026000000000002695700000000007765667700000000000000009999123100000010000000000000BRSANBCDAM13169
012025092202SANB3       010SANTANDER BRON           R$  000000000138800000000013920000000001360000000000137400000000013770000000001373000000000138100432000000000000061400000000000084408500000000000000009999123100000010000000000000BRSANBACNOR8176
012025092202SANB4       010SANTANDER BRPN           R$  000000000151200000000015210000000001468000000000150000000000014680000000001468000000000150900939000000000000124800000000000187303900000000000000009999123100000010000000000000BRSANBACNPR5176
012025092202SAPR11      010SANEPAR     UNT     N2   R$  000000000371800000000037180000000003619000000000364400000000036490000000003637000000000365004124000000000000729300000000002657911600000000000000009999123100000010000000000000BRSAPRCDAM13120
012025092202SAPR3       010SANEPAR     ON      N2   R$  000000000080000000000008010000000000778000000000078400000000007790000000000778000000000078000676000000000000147600000000000115719900000000000000009999123100000010000000000000BRSAPRACNOR9161
012025092202SAPR4       010SANEPAR     PN      N2   R$  000000000072300000000007230000000000707000000000071200000000007120000000000711000000000071201869000000000000770700000000000549253200000000000000009999123100000010000000000000BRSAPRACNPR6161
012025092202TEND3       010TENDA       ON      NM   R$  000000000270900000000027090000000002607000000000264800000000026660000000002664000000000266605883000000000001332400000000003528656700000000000000009999123100000010000000000000BRTENDACNOR4113
012025092202TFCO4       010TRACK FIELD PN      N2   R$  000000000171900000000017190000000001681000000000170400000000017110000000001711000000000171202437000000000000452500000000000771482400000000000000009999123100000010000000000000BRTFCOACNPR8119
012025092202DASA3       010DASA        ON      NM   R$  000000000013500000000001380000000000131000000000013300000000001350000000000133000000000013501030000000000000795600000000000106185300000000000000009999123100000010000000000000BRDASAACNOR1123
012025092202DESK3       010DESKTOP     ON      NM   R$  000000000097700000000010310000000000958000000000099600000000009960000000000989000000000099701606000000000000540600000000000538602400000000000000009999123100000010000000000000BRDESKACNOR2105
012025092202TGMA3       010TEGMA       ON      NM   R$  000000000374400000000037720000000003660000000000368000000000036950000000003690000000000369501193000000000000152400000000000560935000000000000000009999123100000010000000000000BRTGMAACNOR7148
012025092202TIMS3       010TIM         ON      NM   R$  000000000227400000000023160000000002271000000000229900000000023030000000002302000000000231609149000000000004474500000000010287798400000000000000009999123100000010000000000000BRTIMSACNOR5126
012025092202TKNO4       010TEKNO       PN           R$  000000001770000000000177000000000017200000000001748300000000175010000000017301000000001780000007000000000000001100000000000019231300000000000000009999123100000010000000000000BRTKNOACNPR5079
012025092202TOKY3       010GRUPO TOKY  ON      NM   R$  000000000009900000000001020000000000099000000000010000000000001020000000000100000000000010200120000000000000325400000000000032732600000000000000009999123100000010000000000000BRTOKYACNOR5100
012025092202FESA3       010FERBASA     ON      N1   R$  000000000116500000000011650000000001165000000000116500000000011650000000001165000000000121000003000000000000000500000000000000582500000000000000009999123100000010000000000000BRFESAACNOR8193
012025092202FESA4       010FERBASA     PN      N1   R$  000000000067100000000006710000000000656000000000066200000000006660000000000665000000000066601102000000000000345400000000000228771600000000000000009999123100000010000000000000BRFESAACNPR5089
012025092202FHER3       010FER HERINGERON      NM   R$  000000000040900000000004180000000000401000000000041000000000004010000000000401000000000041300014000000000000003000000000000001231300000000000000009999123100000010000000000000BRFHERACNOR5103
012025092202FICT3       010FICTORALIMENON           R$  000000000031800000000003250000000000315000000000031700000000003250000000000317000000000032500023000000000000010000000000000003178400000000000000009999123100000010000000000000BRFICTACNOR3101
012025092202FIQE3       010UNIFIQUE    ON      NM   R$  000000000046400000000004640000000000450000000000045500000000004500000000000450000000000045600477000000000000263300000000000119829300000000000000009999123100000010000000000000BRFIQEACNOR5109
012025092202TOTS3       010TOTVS       ON      NM   R$  000000000456100000000046130000000004528000000000456800000000045720000000004569000000000457213008000000000002352000000000010744700900000000000000009999123100000010000000000000BRTOTSACNOR8148
012025092202TPIS3       010TRIUNFO PARTON      NM   R$  000000000040600000000004100000000000406000000000040600000000004080000000000405000000000040800011000000000000003000000000000001219300000000000000009999123100000010000000000000BRTPISACNOR8119
012025092202TRAD3       010TC          ON      NM   R$  000000000053600000000005440000000000521000000000053200000000005300000000000521000000000053000066000000000000015800000000000008410700000000000000009999123100000010000000000000BRTRADACNOR3102
012025092202TRIS3       010TRISUL      ON      NM   R$  000000000072000000000007200000000000696000000000070800000000007100000000000707000000000071100839000000000000274800000000000194643000000000000000009999123100000010000000000000BRTRISACNOR4119
012025092202VAMO3       010VAMOS       ON      NM   R$  000000000037800000000003780000000000363000000000036800000000003680000000000367000000000036814243000000000018842400000000006942903300000000000000009999123100000010000000000000BRVAMOACNOR7108
012025092202VBBR3       010VIBRA       ON      NM   R$  000000000234900000000023770000000002330000000000236500000000023720000000002368000000000237310160000000000012006100000000028395166600000000000000009999123100000010000000000000BRVBBRACNOR1112
012025092202MATD3       010MATER DEI   ON      NM   R$  000000000046000000000004610000000000450000000000045400000000004500000000000450000000000045800504000000000000123300000000000055992600000000000000009999123100000010000000000000BRMATDACNOR4105
012025092202FLRY3       010FLEURY      ON      NM   R$  000000000158100000000016020000000001564000000000158900000000015940000000001593000000000159509462000000000003093100000000004917185800000000000000009999123100000010000000000000BRFLRYACNOR5142
012025092202FRAS3       010FRAS-LE     ON      N1   R$  000000000227500000000023000000000002210000000000222900000000022270000000002227000000000223202004000000000000436500000000000973084500000000000000009999123100000010000000000000BRFRASACNOR0162
012025092202MDIA3       010M.DIASBRANCOON      NM   R$  000000000281200000000028210000000002783000000000280100000000028030000000002800000000000280401875000000000000380600000000001066259400000000000000009999123100000010000000000000BRMDIAACNOR7144
012025092202MDNE3       010MOURA DUBEUXON      NM   R$  000000000281600000000028160000000002720000000000275600000000027650000000002763000000000277503367000000000000575900000000001587318500000000000000009999123100000010000000000000BRMDNEACNOR9102
012025092202MEAL3       010IMC S/A     ON      NM   R$  000000000013800000000001380000000000136000000000013600000000001370000000000136000000000013700068000000000000145000000000000019817300000000000000009999123100000010000000000000BRMEALACNOR9105
012025092202MELK3       010MELNICK     ON      NM   R$  000000000038100000000003810000000000374000000000037500000000003760000000000375000000000037601796000000000001156400000000000434538700000000000000009999123100000010000000000000BRMELKACNOR8115
012025092202MGEL4       010MANGELS INDLPN           R$  000000000058500000000006000000000000550000000000057100000000006000000000000580000000000060000003000000000000000400000000000000228500000000000000009999123100000010000000000000BRMGELACNPR3147
012025092202ASAI3       010ASSAI       ON      NM   R$  000000000100000000000010020000000000978000000000098300000000009800000000000980000000000098313395000000000017108200000000016833481100000000000000009999123100000010000000000000BRASAIACNOR0108
012025092202BMEB4       010MERCANTIL   PN      N1   R$  000000000504700000000051100000000004971000000000504900000000050800000000005045000000000508000177000000000000024300000000000122713100000000000000009999123100000010000000000000BRBMEBACNPR5213
012025092202BMGB4       010BANCO BMG   PN      N1   R$  000000000039400000000003950000000000388000000000039000000000003940000000000393000000000039400936000000000000707200000000000276297500000000000000009999123100000010000000000000BRBMGBACNPR0114
012025092202BMKS3       010BIC MONARK  ON           R$  000000004291400000000440000000000042798000000004349600000000440000000000042108000000004400000010000000000000000014000000000000608948000000000000009999123100000010000000000000BRBMKSACNOR9167
012025092202BMOB3       010BEMOBI TECH ON      NM   R$  000000000221200000000023000000000002212000000000227700000000022940000000002282000000000229701446000000000000328300000000000747755000000000000000009999123100000010000000000000BRBMOBACNOR7106
012025092202BPAN4       010BANCO PAN   PN      N1   R$  000000000080700000000008070000000000772000000000079200000000008030000000000802000000000080304611000000000001447100000000001147272800000000000000009999123100000010000000000000BRBPANACNPR1116
012025092202BRAP3       010BRADESPAR   ON      N1   R$  000000000156100000000015660000000001553000000000155800000000015610000000001560000000000156100103000000000000014300000000000022287900000000000000009999123100000010000000000000BRBRAPACNOR5151
012025092202BRAP4       010BRADESPAR   PN      N1   R$  000000000170800000000017210000000001703000000000170900000000017090000000001708000000000170905693000000000002753400000000004706593700000000000000009999123100000010000000000000BRBRAPACNPR2151
012025092202CXSE3       010CAIXA SEGURION      NM   R$  000000000144000000000014430000000001416000000000143200000000014410000000001440000000000144209672000000000003510000000000005027744100000000000000009999123100000010000000000000BRCXSEACNOR7112
012025092202CYRE3       010CYRELA REALTON      NM   R$  000000000303000000000030440000000002958000000000299500000000030010000000002998000000000300411456000000000003978900000000011918069700000000000000009999123100000010000000000000BRCYREACNOR7141
012025092202ESPA3       010ESPACOLASER ON      NM   R$  000000000013600000000001360000000000129000000000013100000000001320000000000132000000000013300202000000000000259200000000000034019400000000000000009999123100000010000000000000BRESPAACNOR7104
012025092202ETER3       010ETERNIT     ON      NM   R$  000000000047800000000004830000000000472000000000047600000000004790000000000474000000000047900257000000000000043900000000000020919300000000000000009999123100000010000000000000BRETERACNOR3246
012025092202EUCA3       010EUCATEX     ON      N1   R$  000000000213000000000021300000000002130000000000213000000000021300000000001950000000000213700001000000000000000100000000000000213000000000000000009999123100000010000000000000BREUCAACNOR1158
012025092202EUCA4       010EUCATEX     PN      N1   R$  000000000178800000000017890000000001756000000000177500000000017690000000001769000000000177900211000000000000023300000000000041359100000000000000009999123100000010000000000000BREUCAACNPR8045
012025092202EVEN3       010EVEN        ON      NM   R$  000000000080200000000008020000000000772000000000078000000000007790000000000778000000000078001270000000000000366800000000000286462700000000000000009999123100000010000000000000BREVENACNOR8120
012025092202EZTC3       010EZTEC       ON      NM   R$  000000000170300000000017080000000001677000000000169000000000016900000000001688000000000169102911000000000000910800000000001539606800000000000000009999123100000010000000000000BREZTCACNOR0130
012025092202IFCM3       010INFRACOMM   ON  ES  NM   R$  000000000002400000000000240000000000022000000000002200000000000220000000000022000000000002300590000000000003478100000000000077530700000000000000009999123100000010000000000000BRIFCMACNOR8106
012025092202IGTI11      010IGUATEMI S.AUNT     N1   R$  000000000240500000000024120000000002375000000000239800000000024080000000002405000000000240906557000000000002004000000000004805648400000000000000009999123100000010000000000000BRIGTICDAM16108
012025092202IGTI3       010IGUATEMI S.AON      N1   R$  000000000029100000000002950000000000282000000000028600000000002900000000000286000000000029000071000000000000031000000000000008875300000000000000009999123100000010000000000000BRIGTIACNOR8108
012025092202INEP3       010INEPAR      ON           R$  000000000016400000000001690000000000159000000000016300000000001640000000000161000000000016500035000000000000021300000000000003490900000000000000009999123100000010000000000000BRINEPACNOR1145
012025092202INEP4       010INEPAR      PN           R$  000000000014400000000001500000000000144000000000014800000000001490000000000147000000000015000008000000000000003600000000000000535100000000000000009999123100000010000000000000BRINEPACNPR8145
012025092202IRBR3       010IRBBRASIL REON      NM   R$  000000000486200000000048620000000004742000000000477800000000047470000000004746000000000476103263000000000000707400000000003380488800000000000000009999123100000010000000000000BRIRBRACNOR4112
012025092202ALPK3       010ESTAPAR     ON      NM   R$  000000000033000000000003340000000000320000000000032600000000003320000000000325000000000033200631000000000000187000000000000060981200000000000000009999123100000010000000000000BRALPKACNOR9101
012025092202ALUP11      010ALUPAR      UNT     N2   R$  000000000311700000000031460000000003068000000000309600000000031100000000003108000000000311003413000000000000872800000000002702785900000000000000009999123100000010000000000000BRALUPCDAM15124
012025092202ALUP3       010ALUPAR      ON      N2   R$  000000000110800000000011120000000001092000000000110100000000010920000000001095000000000111000032000000000000003900000000000004296300000000000000009999123100000010000000000000BRALUPACNOR8124
012025092202ALUP4       010ALUPAR      PN      N2   R$  000000000098600000000010000000000000986000000000099200000000009960000000000994000000000099700060000000000000008700000000000008633800000000000000009999123100000010000000000000BRALUPACNPR5124
012025092202AMAR3       010LOJAS MARISAON      NM   R$  000000000012800000000001280000000000123000000000012500000000001240000000000124000000000012500302000000000000157800000000000019731700000000000000009999123100000010000000000000BRAMARACNOR4115
012025092202BRKM3       010BRASKEM     ON      N1   R$  000000000091600000000009160000000000873000000000088700000000008890000000000880000000000089000105000000000000026700000000000023694700000000000000009999123100000010000000000000BRBRKMACNOR1119
012025092202BRKM5       010BRASKEM     PNA     N1   R$  000000000084000000000008430000000000825000000000083200000000008400000000000840000000000084106067000000000003471400000000002888546500000000000000009999123100000010000000000000BRBRKMACNPA4122
012025092202ELET3       010ELETROBRAS  ON      N1   R$  000000000500800000000050520000000004946000000000498200000000049740000000004969000000000498520947000000000006592100000000032846073500000000000000009999123100000010000000000000BRELETACNOR6163
012025092202ELET6       010ELETROBRAS  PNB     N1   R$  000000000531400000000053140000000005194000000000523400000000052420000000005240000000000524211299000000000004510900000000023614373300000000000000009999123100000010000000000000BRELETACNPB7080
012025092202GGPS3       010GPS         ON      NM   R$  000000000182800000000018290000000001787000000000181500000000018200000000001819000000000182105055000000000001371600000000002489613100000000000000009999123100000010000000000000BRGGPSACNOR9104
012025092202INTB3       010INTELBRAS   ON      NM   R$  000000000130000000000013000000000001248000000000126000000000012570000000001257000000000125906802000000000002055000000000002589719700000000000000009999123100000010000000000000BRINTBACNOR9114
012025092202AERI3       010AERIS       ON      NM   R$  000000000041000000000004120000000000408000000000040900000000004080000000000408000000000040900123000000000000070300000000000028799900000000000000009999123100000010000000000000BRAERIACNOR4102
012025092202AGRO3       010BRASILAGRO  ON      NM   R$  000000000205000000000020780000000002031000000000203800000000020350000000002035000000000204300886000000000000146800000000000299228000000000000000009999123100000010000000000000BRAGROACNOR7115
012025092202ALLD3       010ALLIED      ON      NM   R$  000000000085000000000008500000000000829000000000083700000000008300000000000830000000000083600495000000000000167400000000000140157000000000000000009999123100000010000000000000BRALLDACNOR3108
012025092202ALOS3       010ALLOS       ON      NM   R$  000000000251900000000025240000000002492000000000251000000000025090000000002507000000000251506818000000000002174500000000005459957500000000000000009999123100000010000000000000BRALOSACNOR5113
012025092202ALPA3       010ALPARGATAS  ON      N1   R$  000000000093000000000009400000000000905000000000091700000000009050000000000905000000000091200037000000000000007800000000000007156900000000000000009999123100000010000000000000BRALPAACNOR0232
012025092202ALPA4       010ALPARGATAS  PN      N1   R$  000000000097600000000009840000000000954000000000097200000000009830000000000983000000000098404430000000000001357300000000001319802400000000000000009999123100000010000000000000BRALPAACNPR7233
012025092202BHIA3       010CASAS BAHIA ON      NM   R$  000000000048700000000004970000000000462000000000047300000000004620000000000462000000000046305143000000000005982400000000002834783900000000000000009999123100000010000000000000BRBHIAACNOR1104
012025092202BIED3       010BIOMA EDUC  ON      MA   R$  000000000031200000000003270000000000312000000000031800000000003150000000000310000000000031900009000000000000005000000000000001591200000000000000009999123100000010000000000000BRBIEDACNOR2101
012025092202AMBP3       010AMBIPAR     ON      NM   R$  000000000141300000000014300000000001390000000000140900000000014100000000001396000000000141001552000000000000294400000000000414849500000000000000009999123100000010000000000000BRAMBPACNOR6105
012025092202AMOB3       010AUTOMOB     ON      NM   R$  000000000128700000000013080000000001240000000000127000000000012540000000001253000000000127900227000000000000049500000000000062876200000000000000009999123100000010000000000000BRAMOBACNOR9101
012025092202ANIM3       010ANIMA       ON      NM   R$  000000000035200000000003600000000000344000000000035300000000003560000000000356000000000035805450000000000003310700000000001171685500000000000000009999123100000010000000000000BRANIMACNOR6110
012025092202ARML3       010ARMAC       ON      NM   R$  000000000037500000000003760000000000363000000000037200000000003740000000000372000000000037402603000000000003422000000000001273535000000000000000009999123100000010000000000000BRARMLACNOR1115
012025092202DOTZ3       010DOTZ SA     ON      NM   R$  000000000084000000000008400000000000765000000000078500000000007650000000000765000000000082000046000000000000011300000000000008877800000000000000009999123100000010000000000000BRDOTZACNOR7101
012025092202SRNA3       010SERENA      ON      NM   R$  000000000122700000000012270000000001224000000000122500000000012270000000001225000000000122702055000000000002426700000000002975050800000000000000009999123100000010000000000000BRSRNAACNOR4100
012025092202STBP3       010SANTOS BRP  ON           R$  000000000143700000000014410000000001437000000000143700000000014370000000001437000000000143903779000000000002334600000000003357050100000000000000009999123100000010000000000000BRSTBPACNOR3135
012025092202SUZB3       010SUZANO S.A. ON      NM   R$  000000000505500000000050750000000005025000000000504600000000050350000000005034000000000503508708000000000006973500000000035191640800000000000000009999123100000010000000000000BRSUZBACNOR0133
012025092202WEST3       010WESTWING    ON      NM   R$  000000000045000000000004500000000000430000000000043700000000004460000000000435000000000044600025000000000000027100000000000011867200000000000000009999123100000010000000000000BRWESTACNOR3101
012025092202WHRL3       010WHIRLPOOL   ON           R$  000000000045400000000004540000000000447000000000044900000000004500000000000448000000000045400007000000000000001600000000000000719800000000000000009999123100000010000000000000BRWHRLACNOR5133
012025092202WHRL4       010WHIRLPOOL   PN           R$  000000000048900000000004960000000000489000000000049000000000004910000000000490000000000049400025000000000000013500000000000006621100000000000000009999123100000010000000000000BRWHRLACNPR2133
012025092202WIZC3       010WIZ CO      ON      NM   R$  000000000084400000000008450000000000815000000000082800000000008320000000000828000000000083401792000000000000640000000000000530024300000000000000009999123100000010000000000000BRWIZCACNOR5103
012025092202WLMM4       010WLM IND COM PN           R$  000000000203800000000020400000000002001000000000200800000000020010000000001972000000000208000010000000000000001400000000000002812200000000000000009999123100000010000000000000BRWLMMACNPR3123
012025092202YDUQ3       010YDUQS PART  ON      NM   R$  000000000135600000000013760000000001339000000000135400000000013530000000001352000000000135306349000000000002101500000000002847235600000000000000009999123100000010000000000000BRYDUQACNOR3107
012025092202LAND3       010TERRASANTAPAON      NM   R$  000000000091800000000009280000000000902000000000091200000000009060000000000906000000000091500135000000000000016100000000000014691000000000000000009999123100000010000000000000BRLANDACNOR9104
012025092202LAVV3       010LAVVI       ON      NM   R$  000000000151700000000015190000000001493000000000150800000000015090000000001508000000000150901909000000000000470700000000000709895200000000000000009999123100000010000000000000BRLAVVACNOR4117
012025092202LEVE3       010METAL LEVE  ON      NM   R$  000000000279600000000027960000000002742000000000275400000000027480000000002748000000000276201763000000000000271800000000000748649200000000000000009999123100000010000000000000BRLEVEACNOR2200
012025092202LJQQ3       010QUERO-QUERO ON      NM   R$  000000000028000000000002800000000000258000000000026300000000002600000000000260000000000026103654000000000003917900000000001031983900000000000000009999123100000010000000000000BRLJQQACNOR5105
012025092202LOGG3       010LOG COM PROPON      NM   R$  000000000226800000000023560000000002223000000000229600000000023430000000002343000000000234403374000000000000691700000000001588786300000000000000009999123100000010000000000000BRLOGGACNOR7110
012025092202LOGN3       010LOG-IN      ON      NM   R$  000000000249100000000026470000000002485000000000256300000000026000000000002600000000000263600257000000000000079000000000000202506700000000000000009999123100000010000000000000BRLOGNACNOR3105
012025092202LPSB3       010LOPES BRASILON      NM   R$  000000000013900000000001410000000000136000000000013700000000001370000000000136000000000013700190000000000000174200000000000023888100000000000000009999123100000010000000000000BRLPSBACNOR0115
012025092202LREN3       010LOJAS RENNERON      NM   R$  000000000167100000000016730000000001619000000000163800000000016270000000001625000000000162821057000000000015873500000000026004468700000000000000009999123100000010000000000000BRLRENACNOR1226
012025092202MTRE3       010MITRE REALTYON  ED  NM   R$  000000000039400000000003940000000000378000000000038400000000003850000000000384000000000038501031000000000000614800000000000236350700000000000000009999123100000010000000000000BRMTREACNOR6127
012025092202MTSA4       010METISA      PN  EJ       R$  000000000410500000000041790000000004105000000000414200000000041790000000003808000000000417900006000000000000000600000000000002485200000000000000009999123100000010000000000000BRMTSAACNPR9077
012025092202MULT3       010MULTIPLAN   ON      N2   R$  000000000286400000000028770000000002822000000000285400000000028760000000002867000000000287709958000000000002483000000000007088622400000000000000009999123100000010000000000000BRMULTACNOR5143
012025092202MWET4       010WETZEL S/A  PN           R$  000000000101100000000010110000000001006000000000100600000000010060000000001009000000000104000007000000000000002900000000000002918800000000000000009999123100000010000000000000BRMWETACNPR3118
012025092202MYPK3       010IOCHP-MAXIONON      NM   R$  000000000127900000000012850000000001253000000000126400000000012530000000001253000000000126603988000000000001169100000000001478558500000000000000009999123100000010000000000000BRMYPKACNOR7157
012025092202NATU3       010NATURA      ON      NM   R$  000000000098200000000009820000000000926000000000094000000000009360000000000935000000000093726833000000000017535100000000016495602400000000000000009999123100000010000000000000BRNATUACNOR6136
012025092202RAIL3       010RUMO S.A.   ON      NM   R$  000000000148000000000014950000000001448000000000147300000000014910000000001484000000000149223633000000000018607100000000027418831900000000000000009999123100000010000000000000BRRAILACNOR9106
012025092202BGIP3       010BANESE      ON           R$  000000000329900000000033400000000003299000000000331900000000033400000000003300000000000358000002000000000000000200000000000000663900000000000000009999123100000010000000000000BRBGIPACNOR1212
012025092202BGIP4       010BANESE      PN           R$  000000000284700000000028470000000002770000000000279300000000027930000000002792000000000284500013000000000000002400000000000006705100000000000000009999123100000010000000000000BRBGIPACNPR8212
012025092202ATED3       010ATOM EDUC   ON           R$  000000000021700000000002180000000000212000000000021400000000002120000000000212000000000021900011000000000000001300000000000000278900000000000000009999123100000010000000000000BRATEDACNOR1100
012025092202AURE3       010AUREN       ON      NM   R$  000000000106700000000010740000000001044000000000105400000000010570000000001052000000000105807983000000000004240200000000004472495900000000000000009999123100000010000000000000BRAUREACNOR9105
012025092202AVLL3       010ALPHAVILLE  ON      NM   R$  000000000017000000000001700000000000167000000000016800000000001670000000000167000000000016800004000000000000000600000000000000100800000000000000009999123100000010000000000000BRAVLLACNOR5103
012025092202AZEV3       010AZEVEDO     ON           R$  000000000004400000000000450000000000038000000000004100000000000390000000000039000000000004000737000000000002789400000000000116606900000000000000009999123100000010000000000000BRAZEVACNOR0122
012025092202AZEV4       010AZEVEDO     PN           R$  000000000004500000000000460000000000039000000000004200000000000400000000000040000000000004100964000000000005875600000000000248090200000000000000009999123100000010000000000000BRAZEVACNPR7122
012025092202BPAC11      010BTGP BANCO  UNT     N2   R$  000000000475600000000047660000000004680000000000471200000000047150000000004715000000000471715723000000000004744300000000022357548200000000000000009999123100000010000000000000BRBPACUNT006125
012025092202BPAC3       010BTGP BANCO  ON      N2   R$  000000000258200000000026220000000002506000000000255700000000025270000000002524000000000255600020000000000000003900000000000009972500000000000000009999123100000010000000000000BRBPACACNOR7137
012025092202BPAC5       010BTGP BANCO  PNA     N2   R$  000000000108500000000010940000000001065000000000107800000000010840000000001071000000000108900009000000000000000900000000000000970400000000000000009999123100000010000000000000BRBPACACNPA0137
012025092202CBAV3       010CBA         ON      NM   R$  000000000038200000000003870000000000371000000000037400000000003730000000000372000000000037404691000000000002988800000000001119445100000000000000009999123100000010000000000000BRCBAVACNOR5104
012025092202CBEE3       010AMPLA ENERG ON           R$  000000000109100000000010910000000001090000000000109000000000010900000000001081000000000113000002000000000000000200000000000000218100000000000000009999123100000010000000000000BRCBEEACNOR3162
012025092202CEAB3       010CEA MODAS   ON      NM   R$  000000000176600000000017660000000001714000000000173300000000017290000000001728000000000173006155000000000002501500000000004335525400000000000000009999123100000010000000000000BRCEABACNOR1104
012025092202CRPG5       010CRISTAL     PNA          R$  000000000134700000000013960000000001305000000000133300000000013050000000001304000000000134900034000000000000008600000000000011465800000000000000009999123100000010000000000000BRCRPGACNPA3119
012025092202CRPG6       010CRISTAL     PNB          R$  000000000145700000000014570000000001457000000000145700000000014570000000001351000000000149900001000000000000000100000000000000145700000000000000009999123100000010000000000000BRCRPGACNPB1119
012025092202CSAN3       010COSAN       ON      NM   R$  000000000057000000000006190000000000563000000000059600000000006140000000000613000000000061482953000000000149975600000000089514189100000000000000009999123100000010000000000000BRCSANACNOR6128
012025092202DXCO3       010DEXCO       ON      NM   R$  000000000059800000000006040000000000588000000000059600000000005980000000000598000000000059904212000000000001794900000000001070246900000000000000009999123100000010000000000000BRDXCOACNOR8107
012025092202CEBR3       010CEB         ON           R$  000000000223300000000023000000000002233000000000227900000000022750000000002274000000000230000105000000000000013200000000000030090300000000000000009999123100000010000000000000BRCEBRACNOR5128
012025092202CEBR5       010CEB         PNA          R$  000000000222200000000022810000000002222000000000225800000000022780000000002267000000000229900039000000000000005100000000000011519900000000000000009999123100000010000000000000BRCEBRACNPA8127
012025092202CEBR6       010CEB         PNB          R$  000000000241500000000024730000000002410000000000243900000000024100000000002409000000000245800082000000000000012700000000000030984700000000000000009999123100000010000000000000BRCEBRACNPB6127
012025092202CGAS3       010COMGAS      ON           R$  000000001210300000000121030000000012103000000001210300000000121030000000012115000000001280000001000000000000000100000000000001210300000000000000009999123100000010000000000000BRCGASACNOR0166
012025092202CGAS5       010COMGAS      PNA          R$  000000001278600000000127860000000012786000000001278600000000127860000000012711000000001285000001000000000000000100000000000001278600000000000000009999123100000010000000000000BRCGASACNPA3163
012025092202CGRA3       010GRAZZIOTIN  ON           R$  000000000278500000000027850000000002785000000000278500000000027850000000002719000000000285000002000000000000000200000000000000557000000000000000009999123100000010000000000000BRCGRAACNOR2085
012025092202CGRA4       010GRAZZIOTIN  PN           R$  000000000270700000000027500000000002700000000000271200000000027000000000002700000000000279100026000000000000005700000000000015462800000000000000009999123100000010000000000000BRCGRAACNPR9085
012025092202CLSC3       010CELESC      ON      N2   R$  000000001009800000000100980000000009800000000000986600000000098000000000009602000000001009200009000000000000000900000000000008879600000000000000009999123100000010000000000000BRCLSCACNOR6157
012025092202CLSC4       010CELESC      PN      N2   R$  000000001026000000000102600000000010174000000001020500000000101940000000010190000000001019500047000000000000005600000000000057151100000000000000009999123100000010000000000000BRCLSCACNPR3136
012025092202CMIG3       010CEMIG       ON      N1   R$  000000000147900000000014900000000001452000000000146200000000014590000000001456000000000145901181000000000000233500000000000341440100000000000000009999123100000010000000000000BRCMIGACNOR6248
012025092202CMIG4       010CEMIG       PN      N1   R$  000000000112700000000011280000000001115000000000112300000000011280000000001127000000000112811407000000000006655900000000007478109700000000000000009999123100000010000000000000BRCMIGACNPR3249
012025092202CSNA3       010SID NACIONALON           R$  000000000080400000000008040000000000775000000000079200000000007950000000000794000000000079507652000000000007252900000000005745469800000000000000009999123100000010000000000000BRCSNAACNOR6263
012025092202HBOR3       010HELBOR      ON      NM   R$  000000000036800000000003700000000000351000000000035700000000003580000000000357000000000035801658000000000001674700000000000597906500000000000000009999123100000010000000000000BRHBORACNOR3119
012025092202HBRE3       010HBR REALTY  ON      NM   R$  000000000049600000000004960000000000479000000000048300000000004840000000000483000000000048400633000000000000257100000000000124256900000000000000009999123100000010000000000000BRHBREACNOR4100
012025092202HBSA3       010HIDROVIAS   ON      NM   R$  000000000033800000000003380000000000328000000000033400000000003360000000000333000000000033704149000000000001978200000000000661789900000000000000009999123100000010000000000000BRHBSAACNOR0102
012025092202HBTS5       010HABITASUL   PNA          R$  000000000330000000000033000000000003010000000000301800000000030100000000003010000000000340000004000000000000003300000000000009962000000000000000009999123100000010000000000000BRHBTSACNPA3129
012025092202AZTE3       010AZT ENERGIA ON           R$  000000000004500000000000460000000000041000000000004300000000000410000000000041000000000004201070000000000007026000000000000303873800000000000000009999123100000010000000000000BRAZTEACNOR4101
012025092202BBDC3       010BRADESCO    ON      N1   R$  000000000150100000000015190000000001490000000000151100000000015170000000001516000000000151805918000000000006739700000000010184173600000000000000009999123100000010000000000000BRBBDCACNOR1790
012025092202BBDC4       010BRADESCO    PN      N1   R$  000000000176000000000017780000000001743000000000176200000000017740000000001773000000000177419843000000000031295400000000055164446200000000000000009999123100000010000000000000BRBBDCACNPR8790
012025092202BRAV3       010BRAVA       ON  ATZ NM   R$  000000000185200000000018920000000001838000000000187000000000018770000000001877000000000187813531000000000007115400000000013308158100000000000000009999123100000010000000000000BRBRAVACNOR3103
012025092202DEXP3       010DEXXOS PAR  ON      N1   R$  000000000083200000000008360000000000828000000000083100000000008320000000000830000000000083200324000000000000058200000000000048400100000000000000009999123100000010000000000000BRDEXPACNOR1107
012025092202DEXP4       010DEXXOS PAR  PN      N1   R$  000000000081800000000008180000000000815000000000081500000000008150000000000807000000000081500006000000000000002500000000000002038700000000000000009999123100000010000000000000BRDEXPACNPR8107
012025092202DIRR3       010DIRECIONAL  ON      NM   R$  000000000154200000000015550000000001515000000000154200000000015530000000001552000000000155409396000000000004238400000000006535932200000000000000009999123100000010000000000000BRDIRRACNOR0122
012025092202DMVF3       010D1000VFARMA ON      NM   R$  000000000047000000000004750000000000463000000000046600000000004750000000000468000000000047500200000000000000067600000000000031509400000000000000009999123100000010000000000000BRDMVFACNOR9100
012025092202DOHL4       010DOHLER      PN           R$  000000000037500000000003800000000000374000000000037700000000003800000000000374000000000038000008000000000000000800000000000000302000000000000000009999123100000010000000000000BRDOHLACNPR9067
012025092202HYPE3       010HYPERA      ON      NM   R$  000000000239200000000023920000000002313000000000233100000000023260000000002324000000000232806747000000000002101300000000004899863400000000000000009999123100000010000000000000BRHYPEACNOR0147
012025092202MILS3       010MILLS       ON      NM   R$  000000000118900000000011890000000001146000000000116400000000011850000000001178000000000118504260000000000001702600000000001982232900000000000000009999123100000010000000000000BRMILSACNOR2131
012025092202SBFG3       010GRUPO SBF   ON      NM   R$  000000000129000000000013090000000001275000000000129500000000013000000000001299000000000130204594000000000001429700000000001851937100000000000000009999123100000010000000000000BRSBFGACNOR1104
012025092202SBSP3       010SABESP      ON      NM   R$  000000001311300000000131560000000012800000000001291300000000129560000000012956000000001295716580000000000003669000000000047380210300000000000000009999123100000010000000000000BRSBSPACNOR5162
012025092202TTEN3       0103TENTOS     ON      NM   R$  000000000143300000000014330000000001377000000000139200000000013850000000001382000000000138506976000000000001785700000000002486115200000000000000009999123100000010000000000000BRTTENACNOR0104
012025092202TUPY3       010TUPY        ON      NM   R$  000000000141000000000014120000000001380000000000138900000000013850000000001384000000000139403656000000000001086700000000001510472900000000000000009999123100000010000000000000BRTUPYACNOR1185
012025092202UCAS3       010UNICASA     ON      NM   R$  000000000013200000000001350000000000126000000000013100000000001300000000000130000000000013500096000000000000033300000000000004383300000000000000009999123100000010000000000000BRUCASACNOR1114
012025092202UGPA3       010ULTRAPAR    ON      NM   R$  000000000206800000000020910000000002050000000000207600000000020910000000002088000000000209208397000000000003671000000000007622586300000000000000009999123100000010000000000000BRUGPAACNOR8158
012025092207TXRX4       010TEX RENAUX  PN           R$  000000000019300000000001930000000000193000000000019300000000001930000000000158000000000019300001000000000000000200000000000000038600000000000000009999123100000010000000000000BRTXRXACNPR0142
012025092208OSXB3       010OSX BRASIL  ON      NM   R$  000000000023500000000002390000000000233000000000023500000000002330000000000228000000000023300004000000000000000900000000000000211700000000000000009999123100000010000000000000BROSXBACNOR8109
012025092208RPMG3       010PET MANGUINHON           R$  000000000030100000000003100000000000294000000000029500000000002940000000000293000000000029400011000000000000005800000000000001715200000000000000009999123100000010000000000000BRRPMGACNOR9194
012025092208RSID3       010ROSSI RESID ON      NM   R$  000000000019300000000001960000000000190000000000019200000000001940000000000188000000000019500033000000000000022000000000000004227900000000000000009999123100000010000000000000BRRSIDACNOR8121
012025092208PMAM3       010PARANAPANEMAON      NM   R$  000000000014500000000001510000000000145000000000014700000000001480000000000148000000000014900444000000000000440100000000000065121500000000000000009999123100000010000000000000BRPMAMACNOR3043
012025092208OIBR3       010OI          ON      N1   R$  000000000005400000000000550000000000053000000000005400000000000550000000000054000000000005500415000000000001565600000000000084779300000000000000009999123100000010000000000000BROIBRACNOR1112
012025092208OIBR4       010OI          PN      N1   R$  000000000072000000000007230000000000720000000000072100000000007210000000000720000000000073500011000000000000001400000000000001009800000000000000009999123100000010000000000000BROIBRACNPR8111
012025092208CTAX3       010CONTAX      ON           R$  000000000012000000000001200000000000120000000000012000000000001200000000000115000000000011800004000000000000001000000000000000120000000000000000009999123100000010000000000000BRCTAXACNOR3119
012025092208JFEN3       010JOAO FORTES ON           R$  000000000018700000000001870000000000170000000000017300000000001730000000000171000000000017400062000000000000021700000000000003771000000000000000009999123100000010000000000000BRJFENACNOR0061
012025092208BOBR4       010BOMBRIL     PN           R$  000000000014000000000001470000000000138000000000014100000000001390000000000140000000000014500019000000000000003600000000000000509800000000000000009999123100000010000000000000BRBOBRACNPR3128
012025092208AGXY3       010AGROGALAXY  ON      NM   R$  000000000057100000000005830000000000570000000000057400000000005710000000000571000000000058100229000000000000029800000000000017118300000000000000009999123100000010000000000000BRAGXYACNOR4104
012025092208AMER3       010AMERICANAS  ON      NM   R$  000000000074300000000007640000000000710000000000072700000000007100000000000710000000000071204235000000000003083100000000002243403100000000000000009999123100000010000000000000BRAMERACNOR6103
012025092208LIGT3       010LIGHT S/A   ON      NM   R$  000000000058900000000005940000000000574000000000057800000000005800000000000579000000000058001617000000000000948500000000000549040700000000000000009999123100000010000000000000BRLIGTACNOR2125
012025092208HOOT4       010HOTEIS OTHONPN           R$  000000000039900000000004000000000000399000000000039900000000004000000000000394000000000040500002000000000000000300000000000000119900000000000000009999123100000010000000000000BRHOOTACNPR9015
012025092210SEQL1       010SEQUOIA LOG DIR ORD NM   R$  000000000002700000000000310000000000018000000000002400000000000230000000000023000000000002400236000000000000397100000000000009763300000000000000009999123100000010000000000000BRSEQLD06OR6106
012025092210BMGB10      010BANCO BMG   PN  REC N1   R$  000000000039200000000003930000000000392000000000039100000000003930000000000384000000000038900003000000000000000300000000000000117400000000000000009999123100000010000000000000BRBMGBR02PR3113
012025092210IFCM1       010INFRACOMM   DIR ORD NM   R$  000000000000100000000000010000000000001000000000000100000000000010000000000000000000000000100085000000000000364100000000000000364100000000000000009999123100000010000000000000BRIFCMD04OR7105
012025092212BBFI11      010FII BB PROGRCI           R$  000000003500300000000351190000000035000000000003504900000000350100000000035010000000003549800030000000000000000124000000000004346163000000000000009999123100000010000000000000BRBBFICTF006329
012025092212BBFO11      010FII BB FOF  CI           R$  000000000648000000000064800000000006354000000000643200000000063540000000006354000000000646400195000000000000004059000000000026108131000000000000009999123100000010000000000000BRBBFOCTF004156
012025092212BBIG11      010FII BBIG    CI           R$  000000000070100000000007020000000000693000000000069700000000007000000000000700000000000070104183000000000000203067000000000141639337000000000000009999123100000010000000000000BRBBIGCTF004116
012025092212BBRC11      010FII BB CORP CI           R$  000000000990000000000100140000000009620000000000983500000000097400000000009740000000000975500325000000000000001199000000000011792794000000000000009999123100000010000000000000BRBBRCCTF004268
012025092212SJAU11      010FII SJ AU   CI           R$  000000000077000000000007800000000000750000000000077200000000007510000000000752000000000077400029000000000000000430000000000000332103000000000000009999123100000010000000000000BRSJAUCTF009104
012025092212CARE11      010FII DEA CARECI           R$  000000000011000000000001130000000000108000000000011100000000001110000000000110000000000011100192000000000000038561000000000004298390000000000000009999123100000010000000000000BRCARECTF000112
012025092212GLPF11      010FII GLPF    CI           R$  000000001052000000000105200000000010520000000001052000000000105200000000000001000000000000000001000000000000000635000000000006680200000000000000009999123100000010000000000000BRGLPFCTF009107
012025092212ITRI11      010FII ITRI    CI           R$  000000000804100000000080410000000007912000000000799100000000079840000000007971000000000798401302000000000000012033000000000096167214000000000000009999123100000010000000000000BRITRICTF008117
012025092212SCPF11      010FII SCP     CI           R$  000000000027700000000002840000000000269000000000027600000000002700000000000270000000000028400035000000000000000570000000000000157460000000000000009999123100000010000000000000BRSCPFCTF003302
012025092212SEQR11      010FII SEQUOIA CI           R$  000000000489100000000048910000000004883000000000489000000000048910000000004885000000000489100119000000000000000510000000000002494026000000000000009999123100000010000000000000BRSEQRCTF002158
012025092212SHPH11      010FII HIGIENOPCI           R$  000000009750300000000981000000000095600000000009731800000000970010000000097000000000009819900028000000000000000043000000000004184684000000000000009999123100000010000000000000BRSHPHCTF008366
012025092212EDFO11      010FII OURINVESCI           R$  000000001190000000000120990000000011900000000001192400000000120990000000011901000000001330900002000000000000000008000000000000095399000000000000009999123100000010000000000000BREDFOCTF004338
012025092212EDGA11      010FII GALERIA CI           R$  000000000140900000000015490000000001409000000000148200000000014700000000001469000000000154000012000000000000000041000000000000060765000000000000009999123100000010000000000000BREDGACTF001254
012025092212EGDB11      010FII EGDB    CI           R$  000000011583600000001158360000000115836000000011583600000001158360000000000000000000000000000001000000000000000001000000000000115836000000000000009999123100000010000000000000BREGDBCTF009100
012025092212GAME11      010FII GUARD MUCI           R$  000000000085300000000008540000000000847000000000085100000000008480000000000848000000000085300353000000000000007699000000000006552275000000000000009999123100000010000000000000BRGAMECTF002147
012025092212GARE11      010FII GUARDIANCI           R$  000000000092200000000009230000000000904000000000090900000000009090000000000908000000000090920056000000000000663289000000000603582084000000000000009999123100000010000000000000BRGARECTF001121
012025092212GCDL11      010FII GCDL    CI           R$  000000001137400000000113740000000011374000000001137400000000113740000000000000000000000000000001000000000000001500000000000017061000000000000000009999123100000010000000000000BRGCDLCTF002100
012025092212GCRI11      010FII GLPG CRICI  ER       R$  000000000660900000000066090000000006481000000000655400000000065790000000006512000000000657900166000000000000002022000000000013254065000000000000009999123100000010000000000000BRGCRICTF008159
012025092212GFDL11      010FII GFDL    CI           R$  000000001066300000000106630000000010663000000001066300000000106630000000000000000000000000000001000000000000000038000000000000405194000000000000009999123100000010000000000000BRGFDLCTF005101
012025092212GSFI11      010FII GENERAL CI           R$  000000000094500000000009450000000000937000000000094000000000009450000000000937000000000094900038000000000000002281000000000002144897000000000000009999123100000010000000000000BRGSFICTF009103
012025092212GTWR11      010FII G TOWERSCI           R$  000000000777300000000077730000000007633000000000767900000000076870000000007672000000000768703063000000000000022152000000000170121972000000000000009999123100000010000000000000BRGTWRCTF003178
012025092212GZIT11      010FII GAZIT   CI           R$  000000000468400000000046850000000004456000000000451800000000044760000000004476000000000449710591000000000000034858000000000157493425000000000000009999123100000010000000000000BRGZITCTF005122
012025092212URHF11      010FII URHF    CI           R$  000000000829900000000082990000000008299000000000829900000000082990000000008188000000000829900001000000000000000002000000000000016598000000000000009999123100000010000000000000BRURHFCTF004114
012025092212URPR11      010FII URCA RENCI           R$  000000000381300000000038300000000003760000000000378700000000037820000000003778000000000378203380000000000000029314000000000111026289000000000000009999123100000010000000000000BRURPRCTF002173
012025092212VOTS11      010FII V MASTERCI           R$  000000000741500000000079580000000007405000000000751200000000079570000000007957000000000799000017000000000000000230000000000001727838000000000000009999123100000010000000000000BRVOTSCTF007185
012025092212GRUL11      010FII GRUL    CI           R$  000000000082600000000008320000000000819000000000082200000000008310000000000824000000000083100818000000000000019071000000000015683314000000000000009999123100000010000000000000BRGRULCTF004111
012025092212PMLL11      010FII PMLL PAXCI           R$  000000001002000000000101000000000010020000000001006900000000100560000000010056000000001007902454000000000000034170000000000344068400000000000000009999123100000010000000000000BRPMLLCTF005102
012025092212RECD11      010FII RECD    CI           R$  000000000084300000000008430000000000797000000000083200000000007980000000000800000000000084200008000000000000000089000000000000074071000000000000009999123100000010000000000000BRRECDCTF004111
012025092212RECM11      010FII RECM    CI           R$  000000000087600000000008760000000000858000000000086700000000008580000000000855000000000085800032000000000000000194000000000000168280000000000000009999123100000010000000000000BRRECMCTF005110
012025092212RECR11      010FII REC RECECI           R$  000000000817100000000081710000000008053000000000811600000000080850000000008085000000000809104221000000000000027637000000000224316250000000000000009999123100000010000000000000BRRECRCTF004166
012025092212RECT11      010FII REC RENDCI           R$  000000000330000000000033400000000003259000000000329600000000033390000000003290000000000333901719000000000000012692000000000041838907000000000000009999123100000010000000000000BRRECTCTF000182
012025092212RELG11      010FII REC LOG CI           R$  000000000653100000000065540000000006500000000000651000000000065250000000006501000000000652300047000000000000000353000000000002298246000000000000009999123100000010000000000000BRRELGCTF008150
012025092212OUJP11      010FII OURI JPPCI           R$  000000000768500000000076990000000007486000000000756500000000075080000000007508000000000756502393000000000000011818000000000089411537000000000000009999123100000010000000000000BROUJPCTF006202
012025092212OULG11      010FII OURILOG CI           R$  000000000363100000000037600000000003631000000000372800000000037300000000003730000000000374700166000000000000001187000000000004426231000000000000009999123100000010000000000000BROULGCTF001156
012025092212RENV11      010FII RENV    CI           R$  000000000057500000000005990000000000557000000000055800000000005580000000000557000000000055800025000000000000001331000000000000743655000000000000009999123100000010000000000000BRRENVCTF003107
012025092212RFOF11      010FII RB CFOF CI           R$  000000000631100000000063420000000006280000000000629000000000063420000000006300000000000634200160000000000000002107000000000013254574000000000000009999123100000010000000000000BRRFOFCTF001166
012025092212RINV11      010FII REAL INVCI  ER       R$  000000001030000000000103420000000010150000000001022900000000101700000000010170000000001030000486000000000000002252000000000023037529000000000000009999123100000010000000000000BRRINVCTF004135
012025092212RMAI11      010FII REAGMULTCI           R$  000000000629900000000063000000000006299000000000629900000000062990000000006260000000000629900004000000000000000008000000000000050393000000000000009999123100000010000000000000BRRMAICTF000150
012025092212RNGO11      010FII RIONEGROCI           R$  000000000500200000000050500000000005000000000000500500000000050190000000005011000000000502000297000000000000006147000000000030770513000000000000009999123100000010000000000000BRRNGOCTF003258
012025092212PABY11      010FII PANAMBY CI           R$  000000000102500000000010250000000001025000000000102500000000010250000000001025000000000104400002000000000000000002000000000000002050000000000000009999123100000010000000000000BRPABYCTF012158
012025092212PATA11      010FII PATA    CI           R$  000000000100000000000010000000000001000000000000100000000000010000000000000907000000000100000002000000000000000003000000000000003000000000000000009999123100000010000000000000BRPATACTF006113
012025092212PATC11      010FII PATC VBICI           R$  000000000392500000000039250000000003885000000000389700000000039250000000003925000000000392600079000000000000003079000000000011999099000000000000009999123100000010000000000000BRPATCCTF002185
012025092212PATL11      010FII PATL VBICI           R$  000000000585000000000058500000000005840000000000584800000000058500000000005839000000000585001766000000000000016854000000000098569309000000000000009999123100000010000000000000BRPATLCTF003161
012025092212RPRI11      010FII RBR PR  CI           R$  000000000835400000000083910000000008352000000000837000000000083750000000008369000000000837500368000000000000001325000000000011090414000000000000009999123100000010000000000000BRRPRICTF007143
012025092212RRCI11      010FII RBCAP RICI           R$  000000000829000000000082900000000008258000000000826000000000082610000000008258000000000833900013000000000000000053000000000000437829000000000000009999123100000010000000000000BRRRCICTF005157
012025092212PLAG11      010FII PLAG    CI           R$  000000000497400000000049900000000004936000000000496500000000049750000000004936000000000497500457000000000000002765000000000013730420000000000000009999123100000010000000000000BRPLAGCTF000108
012025092212PLRI11      010FII POLO I  CI           R$  000000000105100000000010510000000001051000000000105100000000010510000000001052000000000109900003000000000000000003000000000000003153000000000000009999123100000010000000000000BRPLRICTF000251
012025092212PMIS11      010FII PMIS    CI           R$  000000000078000000000007800000000000772000000000077500000000007780000000000773000000000077800458000000000000016500000000000012797275000000000000009999123100000010000000000000BRPMISCTF006122
012025092212NSLU11      010FII LOURDES CI           R$  000000002084700000000208480000000020408000000002049700000000204560000000020456000000002078800336000000000000001294000000000026524282000000000000009999123100000010000000000000BRNSLUCTF008326
012025092212NVHO11      010FII NOVOHORICI           R$  000000000122000000000012200000000001219000000000121900000000012190000000001219000000000128500003000000000000000030000000000000036571000000000000009999123100000010000000000000BRNVHOCTF003244
012025092212OCRE11      010FII OCTO    CI           R$  000000000950000000000095000000000009499000000000949900000000095000000000009000000000000950000003000000000000000340000000000003229976000000000000009999123100000010000000000000BROCRECTF001129
012025092212IRDM11      010FII IRIDIUM CI           R$  000000000609200000000060920000000006000000000000603000000000060000000000006000000000000601006737000000000000083370000000000502725270000000000000009999123100000010000000000000BRIRDMCTF004202
012025092212IRIM11      010FII IRIM    CI           R$  000000000661400000000066700000000006580000000000661500000000065800000000006579000000000663700057000000000000000445000000000002943711000000000000009999123100000010000000000000BRIRIMCTF003150
